:100000000C9449030C947A030C947A030C947A03AD
:100010000C947A030C947A030C947A030C947A036C
:100020000C947A030C947A030C947A030C947A035C
:100030000C9427170C947A030C947A030C947A038B
:100040000C947A030C947A030C947A030C947A033C
:100050000C947A030C947A030C947A030C94690A36
:100060000C947A030C94DD0A0C94B30A0C947A0372
:100070000C947A030C947A030C947A030C947A030C
:100080000C947A030C947A030C947A030C947A03FC
:100090000C947A030C947A030C947A030C947A03EC
:1000A0000C947A030C947A030C947A030C947A03DC
:1000B0000C947A030C947A030C947A030C947A03CC
:1000C0000C947A030C947A030C947A030C947A03BC
:1000D0000C947A030C947A030C947A030C947A03AC
:1000E0000C947A030C94E6030C9448010C94661863
:1000F0000C94B9020C940B060C94C7030C94FE03E9
:100100000C94D2030C949A040C94F4030C94B10351
:100110000C944D070C94A7020C948B040C94BC0413
:100120000C94DC030C94F0030C94CF030C94410565
:100130000C94F4040C94CB030C94D8030C94BF02DD
:100140000C94F7080C941A030C94AE040C94E2037C
:100150000C94F8030C94EA030C9402040C94F90533
:100160000C94AC030C94C3030C947C020C945E04BA
:10017000000020002300260029002C002F00320060
:100180000001000003010601090100002100240014
:1001900027002A002D003000330001010000040177
:1001A00007010A0100002200250028002B002E0074
:1001B0003100340002010000050108010B010505B2
:1001C0000505070508080808020202020A0A0808CD
:1001D00004040404010101010101010103030303FB
:1001E00003030303040707070C0C0C0C0C0C0C0C8A
:1001F0000202020206060606060606060B0B0B0B9B
:100200000B0B0B0B010210202008081020401020BF
:1002100040800201020108040201010204081020CA
:1002200040808040201008040201800402018040C8
:100230002010080402010804020101020408102031
:100240004080010204081020408000000A0B0209CF
:100250000C0D0E0807030401000000000000000060
:10026000000000000000000000000000000000008E
:10027000000000000000121110000000000000004B
:10028000000000000000000000000000000000006E
:10029000CF93DF9300D000D000D01F92CDB7DEB750
:1002A00085E0B82ECE0101967C01E091C605F09163
:1002B000C7051081D12CC12C112329F00580F681AE
:1002C000E02DC080D1800E94AB0D0E94A10D4C0199
:1002D00080911F05909120058816990608F092C01C
:1002E0000E940A0C9092200580921F050E94F60E33
:1002F000D701EB2D1D92EA95E9F70091DC051091ED
:10030000DD051A86198680E04801F1E18F0E911C07
:100310000FB6F8940F92D8015A96DC905A97DD20C8
:1003200009F431C15C964C915C974423F9F050E09C
:1003300016968D919C911797840F951F17969C93F5
:100340008E93169714962D913C91159782179307CB
:1003500038F08D919C91119717969C938E931697D8
:10036000F80166817781C7010E94361ADA94D801B4
:100370005A96DC925A9718968C91882339F0C801C6
:1003800008960E94EB0C81110E942E0E0F900FBE5A
:10039000A980A7FCB2CF0C811D81D8011A968D913E
:1003A0009C91892B21F0C80102960E942B0B0E9480
:1003B000A10D6C0180911F0590912005C816D906EA
:1003C00010F40E940A0CD0922005C0921F05EFEF96
:1003D000EA0DE93008F091CF0E2E000CFF0BD8018A
:1003E00052969C9152978827E750FE4F8F4F0C945E
:1003F0000D1A7C027C02BF02A702B9027C027C02B9
:10040000BF02A7029092200580921F05112351F090
:100410008C149D0470F00E94F60EB401C6010E9477
:10042000E00B66CFE091C405F091C50561E08081E5
:10043000811160E00091DC051091DD050FB6F894A4
:100440000F92D8015D968C915D978F3F11F45D9668
:100450001C92F801868D8F3F09F4168E0F900FBE07
:10046000D8015A968C915A9781113CC05296ED91C1
:10047000FC91A0914406B09145061F96FC93EE9323
:100480001E97A0914406B0914506848195815196AE
:100490009C938E9350978091440690914506A48139
:1004A000B5810C9613969C938E9312978091440677
:1004B000909145060C9695838483E0914406F091D3
:1004C0004506C8014196958B848BF80181898F5F21
:1004D000818BC60188199909662311F08FEF9FEF70
:1004E0000E94280CC8010E94BC0D0E94F60E8111CA
:1004F000FFCE0E942E0EFCCE9160F801928B8A8076
:100500009B8064857585680D791D9401A601C801DD
:100510000E94920B882309F4F0CED80152968C9158
:10052000529782FF10C01C966D917C91680D791DC9
:10053000A601C8010E94BC0BD8015096ED91FC9118
:10054000C8011995DACE8E7FF801828BF5CF9160C4
:1005500052969C9352976A817B811D967C936E93F1
:100560001C976C0D7D1D9601A601C8010E94920B7F
:10057000C4CE91FD04C0C8010E94CA15BECE9E7FA4
:10058000F801928BBACE29853A85232B19F40F9066
:100590000FBE8BCE811109C08091EB058E838091B7
:1005A000E9059091EA0598878F830F900FBE0E940E
:1005B000AB0D0FB6F8940F92F801858D8F3F09F4BB
:1005C000158ED8015E968C915E978F3F11F45E96E2
:1005D0001C920F900FBEBE01675F7F4FCE01069643
:1005E0000E94B80C81111BC0C8010E94B10D882364
:1005F00081F069857A85C4010E94900DC8010E942E
:10060000BC0D0E94F60E811102C00E942E0E81E0E8
:100610007FCEC8010E94BC0D0E94F60EF8CFC80123
:100620000E94BC0D0E94F60EC8010E94B10D8823E5
:1006300071F33BCE80911E05811109C080911D068A
:10064000823010F00E942E0E0E946105F3CF0FB68B
:10065000F8940F92E091FE05F091FF05C681D781D5
:10066000CE0102960E942B0B80914606815080930A
:10067000460680911E05815080931E050F900FBE87
:100680008F89988D0E94CA15CE010E94CA15D2CFBB
:10069000661811241FBECFEFD1E2DEBFCDBF00E050
:1006A0000CBF14E0A0E0B2E0EAE5FAE300E00BBF23
:1006B00002C007900D92A83CB107D9F726E0A8EC3C
:1006C000B4E001C01D92A135B207E1F713E0C9E41F
:1006D000D3E000E006C021970109802FFE010E94AF
:1006E0000D1AC834D10780E00807A9F70E942A171D
:1006F0000C942B1D0C940000282F30E0F901E65BD0
:10070000FD4F9491F901EC5FFD4F449122543E4F0F
:10071000F9012491222309F435C0992311F1915054
:100720009231F8F4E92FF0E08827E656FC4F8F4F1E
:100730000C940D1ACB03CF03AC03C303C703B1035F
:10074000D203D803DC03E203E603EA03F003F40375
:10075000B103F803FE030204809180008F77809339
:100760008000E22FF0E0EE0FFF1FEC55FE4FA59149
:10077000B4918FB7F894EC91611148C040954E2325
:100780004C938FBF0895809180008F7DE8CF80913A
:100790008000877FE4CF84B58F7784BDE2CF84B5B6
:1007A0008F7DFBCF8091B0008F778093B000D9CF41
:1007B0008091B0008F7DF9CF809190008F778093EA
:1007C0009000CFCF809190008F7DF9CF80919000E5
:1007D000877FF5CF8091A0008F778093A000C1CF55
:1007E0008091A0008F7DF9CF8091A000877FF5CF09
:1007F000809120018F7780932001B3CF80912001D9
:100800008F7DF9CF80912001877FF5CF4E2BB8CF18
:10081000CF93DF9390E0FC01EC5FFD4F2491825475
:100820009E4FFC0184918823D1F090E0880F991F9E
:10083000FC01E657FE4FA591B491FC01EC55FE4F2B
:10084000C591D49161110EC09FB7F8948C91E22F9D
:10085000E0958E238C932881E223E8839FBFDF916C
:10086000CF9108958FB7F894EC91E22BEC938FBF62
:10087000F6CF3FB7F8948091E5059091E605A091F9
:10088000E705B091E80526B5A89B05C02F3F19F0F4
:100890000196A11DB11D3FBFBA2FA92F982F882700
:1008A000BC01CD01620F711D811D911D42E0660FDB
:1008B000771F881F991F4A95D1F70895AF92BF926D
:1008C000CF92DF92EF92FF920F931F93CF93DF931C
:1008D0006C017B018B01040F151FEB015E01AE184B
:1008E000BF08C017D10759F06991D601ED91FC916D
:1008F0000190F081E02DC6011995892B79F7C5018A
:10090000DF91CF911F910F91FF90EF90DF90CF90EB
:10091000BF90AF900895FC01538D448D252F30E09A
:10092000842F90E0821B930B541710F0CF960895FC
:1009300001970895FC01918D828D981761F0A28D29
:10094000AE0FBF2FB11D5D968C91928D9F5F9F73EF
:10095000928F90E008958FEF9FEF0895FC01918DA5
:10096000828D981731F0828DE80FF11D858D90E012
:1009700008958FEF9FEF0895FC01918D228D892FAF
:1009800090E0805C9F4F821B91098F739927089597
:1009900085E295E00E94BC0421E0892B09F420E067
:1009A000822F0895FC01A48DA80FB92FB11DA35A61
:1009B000BF4F2C91848D90E001968F739927848F7F
:1009C000A689B7892C93A089B1898C9183708064A2
:1009D0008C93938D848D981306C00288F389E02D43
:1009E00080818F7D80830895EF92FF920F931F93F4
:1009F000CF93DF93EC0181E0888F9B8D8C8D9813D2
:100A00001AC0E889F989808185FF15C09FB7F894DD
:100A1000EE89FF896083E889F98980818370806429
:100A200080839FBF81E090E0DF91CF911F910F9174
:100A3000FF90EF900895F62E0B8D10E00F5F1F4F83
:100A40000F731127E02E8C8D8E110CC00FB607FC92
:100A5000FACFE889F989808185FFF5CFCE010E9420
:100A6000D204F1CFEB8DEC0FFD2FF11DE35AFF4FB8
:100A7000F0829FB7F8940B8FEA89FB8980818062AE
:100A8000CFCFCF93DF93EC01888D8823B9F0AA896B
:100A9000BB89E889F9898C9185FD03C0808186FD39
:100AA0000DC00FB607FCF7CF8C9185FFF2CF808188
:100AB00085FFEDCFCE010E94D204E9CFDF91CF9127
:100AC000089580E090E0892B29F00E94C8048111EC
:100AD0000E94000080E090E0892B49F080E090E0E7
:100AE000892B29F00E94000081110E94000080E003
:100AF00090E0892B49F080E090E0892B29F00E945A
:100B0000000081110E94000080E090E0892B49F0F4
:100B100080E090E0892B29F00E94000081110C9464
:100B200000000895CF92DF92EF92FF920F931F93F0
:100B3000CF93DF93FC014285538555874487C08559
:100B4000D185D387C2870681178111870087778374
:100B5000668322E330E0DB010E94151A6B017C0101
:100B600029E130E0D8010E94151AC60ED71EE81EF2
:100B7000F91E2FE030E0DE010E94151AC60ED71EC6
:100B8000E81EF91E2AE030E0DA010E94151A6C0D09
:100B90007D1D8E1D9F1D24E630E040E050E00E9448
:100BA000EE19C901DF91CF911F910F91FF90EF9046
:100BB000DF90CF900895FC01528143815483458397
:100BC0002081318133832283718360832617370725
:100BD0002CF0922F832F9B01692F782F852F942F34
:100BE000821793070CF4C901681779070CF4CB013D
:100BF0000895CF93C82F8A3029F46DE085E295E0FF
:100C00000E94F4046C2F85E295E00E94F40490E0C9
:100C100080E0CF910895CF93DF9300D000D0CDB77F
:100C2000DEB70E94A10D9A838983412C512C320199
:100C30002FEF421A520A620A720A60E086E00E94AE
:100C40007C0383E090E00197F1F761E086E00E9489
:100C50007C0383E290E00197F1F760E086E00E9478
:100C60007C03EBE0F2E03490E5ECF1E004910E94CB
:100C700039046B017C0110E0000F111F00591E4F59
:100C8000F801A591B4918C918321381609F4CDC057
:100C9000F801A591B4918C9183213812E4C00E948F
:100CA00039044B015C01F801A591B4918C91832129
:100CB000381609F4E5C00E9439049B01AC012819DB
:100CC00039094A095B0949015A0181E081149104FB
:100CD000A104B10409F480E08C8381149104A1047F
:100CE000B10409F4B2C0840131EA83163AE59306EF
:100CF00014F000EA1AE50437110514F404E710E0D3
:100D000080911D0581111FC01093100500930F05E0
:100D10001093120500931105109314050093130509
:100D200010931605009315051093180500931705E9
:100D300010931A050093190510931C0500931B05C9
:100D400081E080931D05B8018FE095E00E94DB05EE
:100D50001C01BC018FE095E00E9492056C01AAE0A5
:100D6000B0E0A50194010E941C1A2AE330E040E0A3
:100D700050E00E94CC193E832D832AE030E0D6015A
:100D80000E94151A2AE330E040E050E00E94CC199E
:100D9000790181E044E6E416F10408F080E08B83F9
:100DA00051E05C836B8189E00E947C0380910D059A
:100DB00090910E050E94ED114092E7045092E804D4
:100DC0006092E9047092EA048092EB049092EC0441
:100DD000A092ED04B092EE041093F0040093EF049F
:100DE0003092F2042092F104D092F404C092F30401
:100DF0008D819E819093F6048093F504F092F8041F
:100E0000E092F7049C819093F904EB81E093FA045B
:100E100080910D0590910E050E94C21066E070E071
:100E2000CE0101960E94C41303CF0E9439046C19AD
:100E30007D098E099F09613375478105910508F485
:100E40001FCF1C82812C912C540110921D051B82F6
:100E5000F12CE12C1E821D82D12CC12C312C212C95
:100E600010E000E09FCF0E9439046C197D098E09C3
:100E70009F09613375478105910508F409CFE1CFDA
:100E80000E9439046C197D098E099F0961337547E9
:100E90008105910508F407CFD4CFCF93DF9300D01D
:100EA00000D0CDB7DEB70E94AB0D60E081E090E0EE
:100EB0000E94280C0E94F60E811102C00E942E0E84
:100EC0000E94A10D9A838983812C912C540188E87A
:100ED000482E83E1582E612C712C8FEF881A980AC6
:100EE000A80AB80A80917B00877F80937B0090E4FA
:100EF00090937C0080917A00806480937A00809146
:100F00007A0086FDFCCF80917800909179009E83D5
:100F10008D8328E833E1DC010E94151A2FEF33E0BE
:100F200040E050E00E94EE1969018901213A3F40FA
:100F300014F000EA1FE0083E83E0180714F408EEFE
:100F400013E08091E60481111FC01093D90400932F
:100F5000D8041093DB040093DA041093DD040093AB
:100F6000DC041093DF040093DE041093E10400938B
:100F7000E0041093E3040093E2041093E50400936B
:100F8000E40491E09093E604B80188ED94E00E94B7
:100F9000DB051C01BC0188ED94E00E9492059C8356
:100FA0008B8380910D0590910E050E94ED1180922A
:100FB000FB049092FC04A092FD04B092FE048D818B
:100FC0009E81909300058093FF04D0920205C09209
:100FD0000105109304050093030530920605209245
:100FE00005058B819C819093080580930705D601A8
:100FF0002EE031E00E94151AA30192010E94EE1921
:101000002758310930930A05209309052EE031E075
:10101000AB81BC810E94151AA30192010E94EE19B6
:101020002758310930930C0520930B0580910D054D
:1010300090910E050E94C21066E070E0CE0101960C
:101040000E94C4134ACF0F931F93CF93DF9361E0A5
:1010500086E00E94080460E087E00E94080460E0E7
:1010600086E00E947C0361E089E00E94080460E061
:1010700089E00E947C0360E086E30E940804E0911E
:101080003505F091360592E09083E0913105F091BD
:1010900032051082E0913305F091340580E18083C0
:1010A00010923D05E0913905F0913A0586E0808384
:1010B000E0913705F0913805808180618083E0916F
:1010C0003705F0913805808188608083E09137058D
:1010D000F0913805808180688083E0913705F09138
:1010E000380580818F7D808329EF35E03093D304EC
:1010F0002093D2041092D5041092D4049093CD047E
:101100001092D7041092D6048AEC94E090934E0685
:1011100080934D0689E192E00E945A1A88E392E09A
:101120000E945A1A82E592E00E945A1A8EE692E0D4
:101130000E945A1A85E992E00E945A1A8FE190E0C3
:101140000E94DB15EC01009781F09983888381E090
:101150008B8F1C8ECE010E94FE0D1D821C82198277
:1011600018821E82CE010E94C210D0930E05C09339
:101170000D05CD2B49F48DEA92E00E945A1A85E2C2
:1011800095E00E944105FFCF10E000E023E040E43D
:1011900051E063EC72E08BE096E00E94F915D82FE5
:1011A00022E040E451E06EEC72E08DE497E00E94B2
:1011B000F915C82F21E040E052E06CED72E087EFB6
:1011C00098E00E94F915D13021F4C13011F481303A
:1011D00049F083EE92E00E945A1A85E295E00E945F
:1011E0004105FFCFDF91CF911F910F910895CF93CC
:1011F000DF93CDB7DEB76C970FB6F894DEBF0FBEA6
:10120000CDBF0E94AB0D60E083E090E00E94280C0F
:101210000E94F60E811102C00E942E0E0E94A10DA6
:101220009A8389830AE010E08BECA82E83E0B82E25
:1012300080910D0590910E050E94ED11C090E7047C
:10124000D090E804E090E904F090EA042091EB04E7
:101250002F838091EC0488879091ED0499872091E9
:10126000EE042A878090EF048091F0048E8790919D
:10127000F1049C872091F2042D878091F3048B87E1
:101280003090F4048091F5049091F6049C838B8354
:101290008091F7049091F8049E838D832090F90447
:1012A0009090FA044090FB045090FC046090FD0480
:1012B0007090FE049091FF049F8720910005288B79
:1012C00080910105898B909102059A8B20910305ED
:1012D0002B8B809104058C8B909105059D8B209123
:1012E00006052E8B809107058F8B90910805988FAE
:1012F00020910905298F80910A058A8F90910B050D
:101300009B8F20910C052C8F80910D0590910E05DF
:101310000E94C21088E093E00E945A1AFF92EF9256
:10132000DF92CF9287E293E09F938F930E94461AB9
:101330000F900F900F900F900F900F9081E493E01B
:10134000CD28CE28CF2861F0211030C082E593E06F
:101350000E945A1A8DE693E00E945A1A85E893E09B
:101360000E945A1A7F926F925F924F928CE194E0A2
:101370009F938F930E94461A0F900F900F900F909B
:101380000F900F9045284628472809F06EC081E449
:1013900093E00E945A1A8EE994E00E945A1A6FE173
:1013A00070E0CE0101960E94C41342CF3F928B851C
:1013B0008F939D859F932C852F938E858F938F92EE
:1013C0009A859F9329852F9388858F939F819F93DB
:1013D0008EE893E09F938F930E94461A8B819C81A5
:1013E000B8010E94B8199F938F937F936F938CEBF2
:1013F00093E09F938F93BF92AF920E94461A8D8184
:101400009E81B8010E94B8199F938F937F936F9329
:1014100089ED93E09F938F93BF92AF920E94461AFB
:101420000FB6F894DEBF0FBECDBF2AE833E08FEFD2
:1014300092E0992021F02CEF32E081E093E03F939D
:101440002F939F938F938BEE93E09F938F930E94A4
:10145000461A0F900F900F900F900F900F909920B9
:1014600009F480CF81E094E07BCF88898F939F85BA
:101470009F938AE394E09F938F930E94461A288D4E
:101480002F938F898F939E899F932D892F938C897A
:101490008F939B899F932A892F9389898F9388E4BF
:1014A00094E09F938F930E94461A9C8D9F932B8D5F
:1014B0002F938A8D8F93998D9F9389E794E09F93C3
:1014C0008F930E94461A0FB6F894DEBF0FBECDBFB1
:1014D00062CF1F920F920FB60F9211242F933F935A
:1014E0008F939F93AF93BF938091E1059091E20515
:1014F000A091E305B091E4053091E00523E0230FCE
:101500002D3758F50196A11DB11D2093E00580935C
:10151000E1059093E205A093E305B093E405809183
:10152000E5059091E605A091E705B091E8050196E3
:10153000A11DB11D8093E5059093E605A093E705F5
:10154000B093E805BF91AF919F918F913F912F91FB
:101550000F900FBE0F901F90189526E8230F02964C
:10156000A11DB11DD2CF1F920F920FB60F92112461
:101570000BB60F922F933F934F935F936F937F938D
:101580008F939F93AF93BF93EF93FF9385E295E083
:101590000E94D204FF91EF91BF91AF919F918F91E3
:1015A0007F916F915F914F913F912F910F900BBE63
:1015B0000F900FBE0F901F9018951F920F920FB6AD
:1015C0000F9211240BB60F922F938F939F93EF934B
:1015D000FF93E0913505F09136058081E0913B0560
:1015E000F0913C0582FD1DC0908180913E058F5F8A
:1015F0008F7320913F05821741F0E0913E05F0E0A6
:10160000EB5DFA4F958F80933E05FF91EF919F918F
:101610008F912F910F900BBE0F900FBE0F901F90C8
:1016200018958081F2CFE091EE05F091EF05808171
:10163000811107C08FEF9FEF9093DF058093DE0548
:101640000895E091EE05F091EF050580F681E02D1B
:1016500080819181F1CFCF93DF93FC01A085B1858B
:101660008281938124813581EC013D832C83C48167
:10167000D5819B838A8311968D919C9112978E17A9
:101680009F0721F41296DC93CE9311971186108652
:101690008C9181508C93DF91CF9108950F931F937C
:1016A000CF93DF938C01FB0180819181D801139648
:1016B0008F3F9807F1F4E801AF81B88512968D91BC
:1016C0009C91139793838283EC01FD83EC83B58314
:1016D000A4831396FC93EE93129711870087F80169
:1016E00080818F5F8083DF91CF911F910F9108954B
:1016F000D90112962D913C911397E90148815981A6
:1017000084179507A8F7DACFFC01039692838183AB
:101710002FEF3FEF348323839683858390878783DE
:1017200010820895FC017383628391878087461736
:10173000570790F0421B530B84859585481759072E
:10174000C8F4BF016E5F7F4F8091C4059091C505BD
:101750000E944E0B80E008954217530718F4621759
:10176000730740F4BF016E5F7F4F8091C605909173
:10177000C705EECF81E00895EF92FF920F931F937C
:10178000CF93DF93EC018B017A016C857D85600F2F
:10179000711F9801A701CE010E94920B811107C011
:1017A000DF91CF911F910F91FF90EF9008958C855D
:1017B0009D85080F191FE889F989CE011995E5CF94
:1017C000EF92FF920F931F93CF93DF938C017B01D6
:1017D000E091C605F091C7050580F681E02DC68130
:1017E000D781CE0102960E942B0B8A8982FF0FC0FF
:1017F000A701B801CE010E94BC0BE889F989CE018E
:10180000DF91CF911F910F91FF90EF9019948E7FF0
:101810008A8BF3CFE091C605F091C70580818111D5
:101820000DC08091C4059091C5059093C705809324
:10183000C605F093C505E093C40508950580F681BB
:10184000E02D6FEF7FEF808191810E94E00BE2CF6E
:10185000BF92CF92DF92EF92FF920F931F93CF939D
:10186000DF93EC01B62EC090E905D090EA05009117
:10187000EE051091EF05E090EC05F090ED058091FC
:1018800044069091450602960E942B0BCF3FDC0741
:1018900009F042C0BB2009F43FC0E091F105F0918E
:1018A000F205A0914406B09145061596FC93EE937F
:1018B0001497A0914406B0914506848195811796AE
:1018C0009C938E9316978091440690914506A4812F
:1018D000B581029613969C938E931297809144063D
:1018E00090914506029695838483E0914406F09199
:1018F000450680EF95E0938782878091F0058F5FA2
:101900008093F005DF91CF911F910F91FF90EF90A1
:10191000DF90CF90BF900895CC0DDD1DE09144067F
:10192000F0914506D383C2836091440670914506C9
:101930006E5F7F4FCC15DD0560F4C701DF91CF915D
:101940001F910F91FF90EF90DF90CF90BF900C947C
:101950004E0BC8010E944E0B8091DE059091DF0571
:10196000C817D90778F6D093DF05C093DE05CACF34
:10197000FC01DB010FB6F8940F924091E9055091FC
:10198000EA052D913C9111972F3F320711F181818A
:1019900092816091EB057081761749F048175907DD
:1019A00030F01D921C9281E00F900FBE0895481BED
:1019B000590B42175307A8F7241B350B2D933C9363
:1019C0008091EB0580838091E9059091EA059283EF
:1019D000818380E0E9CFCF93DF93DC011596ED9111
:1019E000FC910680F781E02DA489B58986859785CD
:1019F00020893189EC013D832C83C089D1899B8367
:101A00008A83CF010C9611962D913C91129728173D
:101A1000390721F41296DC93CE931197158A148A14
:101A20002C9121502C9320912405211157C0A2857F
:101A3000B3858481958126813781EC013D832C8398
:101A4000C681D7819B838A83CF01029611962D91FF
:101A50003C9112972817390721F41296DC93CE9304
:101A60001197138612862C9121502C93C6892091B0
:101A700041062C1710F4C093410629E02C9FE00189
:101A80001124C35ED94F0980DA81C02DD583C48368
:101A90004C815D8157834683AC81BD8113969C93B5
:101AA0008E9312979D838C83A689A29FD0011124C7
:101AB000A35EB94FB387A2878C918F5F8C93A0915F
:101AC0004406B0914506968956968C91891730F553
:101AD00081E080932305DF91CF910895A0910306C3
:101AE000B0910406B787A68714962D913C9115975F
:101AF000318B208B1496CD91DC9115979B838A8333
:101B000015969C938E93149782E096E0958B848B28
:101B1000809102068F5F80930206D1CF80E0DBCFF9
:101B2000CF93DF93EB016091440670914506645FAB
:101B30007F4F0E944E0B61E0CE01DF91CF910C945C
:101B4000280C0FB6F8940F928091E9059091EA0560
:101B50000F900FBE0895809124058F5F8093240518
:101B600008950FB6F8940F92FC01928D0F900FBE5E
:101B700081E0911180E00895EF92FF920F931F93FF
:101B8000CF93DF93EC010FB6F8940F921E8D7C017A
:101B900081E1E80EF11C01E01116D4F08FEF8E8F79
:101BA0000F900FBE0FB6F8940F921D8D7E0188E046
:101BB000E80EF11C01E01116B4F08FEF8D8F0F903D
:101BC0000FBEDF91CF911F910F91FF90EF9008957D
:101BD0008989882319F3C7010E94EB0C81110093B6
:101BE00023051150D9CF8885882339F3C7010E9476
:101BF000EB0C8111009323051150DDCFCF93DF93C0
:101C0000EC010FB6F8940F92888199812B8D4C8D41
:101C1000BC01249F600D711D11247D836C831A8E7D
:101C20009B838A832150330B429FB001439F700DE9
:101C30001124860F971F9F838E838FEF8D8F8E8F3A
:101C4000CE0108960E94840BCE0141960E94840B1F
:101C50000F900FBE81E0DF91CF9108950F920FB6E4
:101C6000F8940F920BB60F920CB60F921F9211249C
:101C70002F923F924F925F926F927F928F929F929C
:101C8000AF92BF92CF92DF92EF92FF920F931F938A
:101C90002F933F934F935F936F937F938F939F9374
:101CA000AF93BF93CF93DF93EF93FF93A09144063D
:101CB000B09145060DB60D920EB60D928091240599
:101CC000882321F081E08093230561C010922305D1
:101CD000A0914406B0914506E0914406F091450676
:101CE0002D913C918789908D82179307A8F0809160
:101CF0004406909145068091440690914506279AA6
:101D00002F9A2FEF87EA91E6215080409040E1F72B
:101D100000C000001F9AF5CF2091410689E001C064
:101D20002150422F50E0849FF001859FF00D112437
:101D3000E35EF94F9081992399F3A181B2811296C4
:101D40006D917C9172836183289FC0011124805E14
:101D5000994F6817790721F4858196819283818351
:101D600089E0849FF001859FF00D1124E35EF94F17
:101D70000180F281E02D86819781909345068093C2
:101D80004406209341068091440690914506A09117
:101D90004406B0914506CD91CDBFDD91DEBFFF91E8
:101DA000EF91DF91CF91BF91AF919F918F917F91F3
:101DB0006F915F914F913F912F911F910F91FF90E4
:101DC000EF90DF90CF90BF90AF909F908F907F90DB
:101DD0006F905F904F903F902F901F900F900CBE90
:101DE0000F900BBE0F900FBE0F9008958F929F9291
:101DF000BF92CF92DF92EF92FF920F931F93CF93F8
:101E0000DF930FB6F8940F92809124058150809350
:101E1000240580912405882379F080E00F900FBE7F
:101E2000DF91CF911F910F91FF90EF90DF90CF90B6
:101E3000BF909F908F90089580914606882369F304
:101E4000E0900706F0900806F0E0E0E039E041E0BD
:101E50008091020681115EC0EF2B11F00E94130BDE
:101E6000E0902105F0902205E114F10409F47DC110
:101E700089E0D82ECC24C3940FEF1FEF8091240566
:101E8000811161C1C091E905D091EA054E018FEF42
:101E9000881A980A9092EA058092E90581149104C3
:101EA000B9F48091EE059091EF052091EC05309109
:101EB000ED053093EF052093EE059093ED058093AB
:101EC000EC058091EB058F5F8093EB050E94130B6F
:101ED0008091DE059091DF05B12C8816990608F0F7
:101EE00026C1E0914406F0914506E689DE9EF001A8
:101EF0001124E35EF94F8081823010F0BB24B3944B
:101F000080912305811103C0BB2009F425C1C09233
:101F1000230522C1D7011696ED91FC91A489B589BC
:101F20006685778580899189EB019D838C83808983
:101F30009189EC017B836A83BF01645F7F4F1196B7
:101F40000D911C9112970617170721F412969C9376
:101F50008E931197158A148A8C9181508C93A28547
:101F6000B3858481958166817781EC017D836C8363
:101F700066817781EB019B838A83CF01029611965C
:101F80000D911C9112970817190721F412967C9352
:101F90006E931197138612862C9121502C93A6894B
:101FA000209141062A1710F4A09341063A9FD001D0
:101FB0001124A35EB94F11960D90BC91A02DB5834D
:101FC000A48314966D917C911597778366831496FC
:101FD0006D917C911597EB019B838A8315969C9359
:101FE0008E9314979689939FD0011124A35EB94FC5
:101FF000B387A2878C918F5F8C93A0914406B09198
:10200000450656968C91891708F022CF40932305F8
:102010001FCFE091EE05F091EF050580F681E02DF0
:102020000680F781E02D828193818816990628F435
:102030009093DF058093DE0554CFC285D3858481DC
:10204000958126813781DC0115963C932E93149758
:1020500026813781D90113969C938E931297CF01D5
:10206000029649815A814817590711F43A83298306
:1020700013861286288121502883A489B589109758
:10208000F9F02685378540895189E9015D834C83C4
:1020900040895189EA013B832A8311966D917C9195
:1020A00012979F01245F3F4F6217730721F4129626
:1020B0005C934E931197158A148A2C9121502C937E
:1020C000A689209141062A1710F4A0934106DA9EB2
:1020D000D0011124A35EB94F11960D90BC91A02D93
:1020E000B583A48314962D913C911597378326834D
:1020F00014962D913C911597E9019B838A8315963F
:102100009C938E93149796899D9DD0011124A35E74
:10211000B94FB387A2878C918F5F8C93E09144066F
:10212000F09145068689891710F4BB24B394E09199
:10213000EE05F091EF05808181116BCF1093DF05E3
:102140000093DE05CECE8091210590912205019667
:102150009093220580932105D1E0ED1AF10809F052
:102160008DCE10922205109221058091230588239F
:1021700009F453CE80914406909145060E942E0E9C
:1021800081E04CCEAF92BF92DF92EF92FF920F931D
:102190001F93CF93DF9300D01F921F92CDB7DEB76E
:1021A0008C011D821C8280E0780198E0E90EF11C10
:1021B0000FB6F8940F92D8015A962C915A975B96C5
:1021C0009C915B97291708F0B0C05A96DC905A97FB
:1021D0005C964C915C9741118CC08D919C91892BA0
:1021E00011F080E00AC0F801E480F580E114F10408
:1021F00031F580E0F80115821482D394D8015A9603
:10220000DC925A9751969C91992321F0C8014196EE
:102210000E94EB0C81110E942E0E0F900FBE81E0E8
:102220000F900F900F900F900F90DF91CF911F9113
:102230000F91FF90EF90DF90BF90AF900895D7017E
:102240009A968C919A9781509A968C939A975696D3
:102250002C91569799969C91291759F28111C9CFC3
:102260005701B2E0AB0EB11CC5010E942B0BF70168
:1022700081A5868B482F50E024E030E0241B350BED
:102280003587248790914106981710F48093410672
:1022900089E0849FD001859FB00D1124A35EB94FC2
:1022A00011960D90BC91A02DF701B583A4831496CF
:1022B0002D913C911597378326831496ED91FC91CF
:1022C0001597B382A2821596BC92AE921497D7014D
:1022D0005696EC915697E89FF0011124E35EF94F72
:1022E0001B96FC93EE931A9780818F5F808381E029
:1022F00081CF50E070E060E012968D919C910E9439
:10230000361AF801848D22813381820F932F911D1B
:1023100093838283248135818217930708F461CFE8
:1023200080819181938382835CCF2C813D81232B9B
:1023300021F40F900FBE80E073CF811109C080910E
:10234000EB0589838091E9059091EA059B838A8357
:102350000F900FBE0E94AB0D0FB6F8940F92F801CC
:10236000858D8F3F09F4158ED8015E968C915E970E
:102370008F3F11F45E961C920F900FBEBE016C5FF2
:102380007F4FCE0101960E94B80C811120C00FB67C
:10239000F8940F92F801928D838D0F900FBE9813D1
:1023A00010C06C817D81C7010E94900DC8010E9400
:1023B000BC0D0E94F60E811102C00E942E0E81E01B
:1023C000F7CEC8010E94BC0D0E94F60EF8CFC801DE
:1023D0000E94BC0D0E94F60EAECF7F928F929F920C
:1023E000AF92BF92CF92DF92EF92FF920F931F9323
:1023F000CF93DF9300D01F921F92CDB7DEB78C0131
:102400008FEF9FEF9D838C83D12C90E0580121E1C9
:10241000A20EB11C89E0782E24E0822E912C0FB6FA
:10242000F8940F92D8015A968C915A978823C9F143
:1024300081505A968C935A978D919C91892B71F467
:10244000E0914406F0914506309719F082A58F5F20
:1024500082A7D8011596FC93EE931497F801808516
:10246000882339F0C80108960E94EB0C81110E9464
:102470002E0E0F900FBEDD24D3948D2D0F900F9054
:102480000F900F900F90DF91CF911F910F91FF90C0
:10249000EF90DF90CF90BF90AF909F908F907F9004
:1024A00008952C813D81232B21F40F900FBED12C58
:1024B000E4CF911109C08091EB0589838091E905F2
:1024C0009091EA059B838A830F900FBE0E94AB0D0B
:1024D0000FB6F8940F92D8015D968C915D978F3F5F
:1024E00011F45D961C92F801868D8F3F09F4168ECB
:1024F0000F900FBEBE016C5F7F4FCE0101960E9410
:10250000B80C8111AFC0C8010E94B10D882309F435
:10251000A3C0D8018D919C91892B09F078C00FB68A
:10252000F8940F92F801E480F580E114F10409F4C5
:1025300091C0D70156968C915697E0914406F09140
:1025400045069689891708F07AC01C962D913C9112
:102550001D9737FD0CC0E0914406F0914506968921
:102560009401291B31091D963C932E931C97879D3E
:10257000C0011124835E994FF70122853385281706
:10258000390709F054C06701F2E0CF0ED11CC60133
:102590000E942B0BE0914406F0914506E689D70195
:1025A0005696EC93809141068E1710F4E093410605
:1025B0007E9EF0011124E35EF94F0180F281E02D4F
:1025C000D7011596FC93EE93149784819581179605
:1025D0009C938E931697A481B5811396DC92CE922C
:1025E0001297D582C482D7015696EC915697E79DF3
:1025F000F0011124E35EF94F1B96FC93EE931A97BA
:1026000080818F5F8083DD24D3940F900FBE6C8117
:102610007D81C5010E94900DC8010E94BC0D0E94E1
:10262000F60E811102C00E942E0E91E0F8CEE091CC
:102630004406F09145068689F701868BE4CFE09148
:102640004406F0914506DD24D39499969C918689A1
:102650009817D8F2D12CD9CFC8010E94BC0D0E9486
:10266000F60EE3CFC8010E94BC0D0E94F60EC80111
:102670000E94B10D8823C9F2DD2009F4FECE0FB609
:10268000F8940F92F8018189882309F47BC00688A9
:10269000F789E02D908184E0891BD80114960D9173
:1026A0001C910115110509F400CFF80191A59817A7
:1026B00008F4982FD80156968C915697981709F4DC
:1026C000F4CE9A962C919A97213009F0EECE569638
:1026D0009C9356971C962D913C911D9737FD08C0F1
:1026E00024E030E0291B31091D963C932E931C9762
:1026F000B9E08B9FC0011124835E994FF8012285B8
:1027000033852817390709F0D0CE7801F2E0EF0EB3
:10271000F11CC7010E942B0BF801A689809141068C
:102720008A1710F4A093410689E08A9FD0011124F2
:10273000A35EB94F11960D90BC91A02DF801B58301
:10274000A48314962D913C91159737832683149674
:10275000ED91FC911597F382E2821596FC92EE9230
:102760001497D8015696EC915697E89FF0011124E2
:10277000E35EF94F1B96FC93EE931A9780818F5F6F
:10278000808393CE80E089CF0F931F93CF93DF9305
:10279000EC018B010E94AB0D2091E9053091EA0517
:1027A00048815981CA01800F911F9983888324171A
:1027B000350780F48417950780F0C0E00E94F60E7C
:1027C000811102C00E942E0E8C2FDF91CF911F919C
:1027D0000F9108958417950718F02817390768F79F
:1027E00060E0821B930B0E94280CC1E0E7CF0F92A0
:1027F0000FB6F8940F920BB60F920CB60F921F9271
:1028000011242F923F924F925F926F927F928F92FC
:102810009F92AF92BF92CF92DF92EF92FF920F936F
:102820001F932F933F934F935F936F937F938F9358
:102830009F93AF93BF93CF93DF93EF93FF93A091B9
:102840004406B09145060DB60D920EB60D9213BE1C
:10285000809124058111F9C08091E9059091EA05E4
:1028600001969093EA058093E905009781F5209100
:10287000EE053091EF054091EC055091ED05509338
:10288000EF054093EE053093ED052093EC05209184
:10289000EB052F5F2093EB05E091EE05F091EF053E
:1028A0002081211107C02FEF3FEF3093DF052093E8
:1028B000DE050DC0E091EE05F091EF050580F68193
:1028C000E02D208131813093DF052093DE052091BA
:1028D000DE053091DF058217930710F420E0A1C0D8
:1028E00020E039E0D32EE091EE05F091EF05308144
:1028F000311107C08FEF9FEF9093DF058093DE05C6
:1029000090C0E091EE05F091EF050580F681E02D95
:102910000680F781E02D428153818417950728F4C2
:102920005093DF054093DE057CC0A285B3854481CA
:10293000558166817781EA017D836C836681778129
:10294000EB015B834A83AF014E5F5F4F11960D91A0
:102950001C9112970417150721F412967C936E931D
:102960001197138612863C9131503C93A489B58906
:102970001097F9F06685778500891189EB011D8331
:102980000C8300891189E8017B836A831196ED909D
:10299000FC901297BF01645F7F4FE616F70621F4A3
:1029A00012961C930E931197158A148A3C913150FC
:1029B0003C93A689309141063A1710F4A093410642
:1029C000DA9ED0011124A35EB94F11960D90BC91EF
:1029D000A02DB583A48314966D917C911597778370
:1029E000668314966D917C911597EB015B834A8306
:1029F00015965C934E93149746894D9DD0011124F2
:102A0000A35EB94FB387A2873C913F5F3C93E091AF
:102A10004406F09145063689341708F064CF21E06A
:102A200062CFE0914406F0914506E689D9E0ED9F3A
:102A3000F0011124E35EF94F8081823008F021E03B
:102A40008091230581110EC00AC0809121059091CB
:102A50002205019690932205809321056CC02223C4
:102A600009F469C080912405882321F081E08093D6
:102A7000230561C010922305A0914406B09145063C
:102A8000E0914406F09145062D913C918789908D07
:102A900082179307A8F08091440690914506809193
:102AA000440690914506279A2F9A2FEF87EA91E6E0
:102AB000215080409040E1F700C000001F9AF5CF00
:102AC0002091410689E001C02150422F50E0849FAF
:102AD000F001859FF00D1124E35EF94F9081992359
:102AE00099F3A181B28112966D917C917283618379
:102AF000289FC0011124805E994F6817790721F43F
:102B0000858196819283818389E0849FF001859FEE
:102B1000F00D1124E35EF94F0180F281E02D8681F2
:102B200097819093450680934406209341068091B7
:102B3000440690914506A0914406B0914506CD917A
:102B4000CDBFDD91DEBFFF91EF91DF91CF91BF91BE
:102B5000AF919F918F917F916F915F914F913F9135
:102B60002F911F910F91FF90EF90DF90CF90BF902A
:102B7000AF909F908F907F906F905F904F903F901D
:102B80002F901F900F900CBE0F900BBE0F900FBE9A
:102B90000F900895CF93DF93009751F0EC010E94BE
:102BA000AB0DCE010E942F19DF91CF910C94F60E40
:102BB000DF91CF910895CF93DF93EC010E94AB0D8D
:102BC000CE010E949318EC010E94F60E209769F442
:102BD000279A2F9A2FEF80E792E021508040904073
:102BE000E1F700C000001F9AF5CFCE01DF91CF9131
:102BF00008957F928F929F92AF92BF92CF92DF9271
:102C0000EF92FF920F931F93CF93DF93982EA92EED
:102C1000762E872E7A01B22ECA010E94DB156C0136
:102C2000892B09F4F3C080E390E00E94DB15EC01EE
:102C3000892B09F4E8C080E3DE011D928A95E9F74B
:102C4000D88ECF8AA70165EA70E0C6010E943F1ABC
:102C5000B1E0EB1AF108EF89F88DEE0DFF1D672D3D
:102C6000782DCE0149969B01205F3F4FDB014D91AE
:102C7000BD01DC014D93CD01AB0141505109DA0199
:102C80004C91442319F02617370781F718A6BE8AFE
:102C9000B9A61B861A861D8A1C8AD987C88784E034
:102CA00090E08B1991099D878C87DB8BCA8B908272
:102CB000DF011197AC9211971C9211971C921197FA
:102CC00080E88C9311971C9211971C9211971C927B
:102CD00057971C9211971C92B697F983E8830115B8
:102CE000110519F0F801D183C0830FB6F8940F9243
:102CF000809146068F5F80934606809144069091AE
:102D00004506892B09F091C0D0934506C09344062F
:102D100080914606813081F58DE196E00E94840B1A
:102D200086E296E00E94840B8FE296E00E94840B7C
:102D300088E396E00E94840B84E196E00E94840B75
:102D40008BE096E00E94840B82E096E00E94840B68
:102D500089EF95E00E94840B80EF95E00E94840B40
:102D600084E196E09093EF058093EE058BE096E08A
:102D70009093ED058093EC05809142068F5F8093E0
:102D80004206AE89809141068A1710F4A09341064D
:102D900029E02A9FD0011124A35EB94F11960D900E
:102DA000BC91A02DBD83AC8314968D919C911597F9
:102DB0009F838E831496ED91FC911597CE01029618
:102DC0009383828315969C938E931497EE89E29F4A
:102DD000F0011124E35EF94FFB87EA8780818F5F62
:102DE00080830F900FBE80914306882351F0E091BD
:102DF0004406F091450696898E89981710F40E9432
:102E00002E0E81E004C0C6010E94CA158FEFDF912B
:102E1000CF911F910F91FF90EF90DF90CF90BF90D7
:102E2000AF909F908F907F9008958091430681117D
:102E3000A3CFE0914406F091450696898E898917C3
:102E400008F49ACFD0934506C093440695CF0E94CC
:102E5000F7131895CF93DF93CDB7DEB760970FB612
:102E6000F894DEBF0FBECDBF789484B5826084BD78
:102E700084B5816084BD85B5826085BD85B581607E
:102E800085BD80916E00816080936E0010928100FC
:102E900080918100826080938100809181008160B7
:102EA0008093810080918000816080938000809178
:102EB000B10084608093B1008091B0008160809304
:102EC000B000809191008260809391008091910088
:102ED0008160809391008091900081608093900048
:102EE0008091A10082608093A1008091A100816007
:102EF0008093A1008091A00081608093A0008091C8
:102F00002101826080932101809121018160809361
:102F100021018091200181608093200180917A00BD
:102F2000846080937A0080917A00826080937A0036
:102F300080917A00816080937A0080917A00806825
:102F400080937A001092C100209105023091060210
:102F50008FEF91E2821B930B909302028093010208
:102F60000E942308ABEBB4E0FE013196BF018D91C6
:102F70008193882321F084E0AB3CB807C1F702ECD1
:102F800015E020E040EC50E08AE193E00E94F91562
:102F9000882309F494C0813009F091C00FB6F894E9
:102FA0000F928091DC059091DD05892B51F581ED23
:102FB00095E00E94840B88EC95E00E94840B81EDE3
:102FC00095E09093C7058093C60588EC95E09093B3
:102FD000C5058093C40581E590E00E94DB158C0156
:102FE000009759F04F96F801918380838AE0838F90
:102FF00085E0848FC8010E94FE0D1093DD050093CB
:10300000DC050F900FBE8091DC059091DD05892BCA
:1030100009F455C00AED15E023E04CE550E060EC02
:1030200074E088E491E00E94F915813009F047C00E
:10303000F8942FEF3FEF3093DF052093DE05809368
:1030400043061092EA051092E905A89588E190ECF4
:103050000FB6F894A895809360000FBE909360001F
:10306000A0914406B0914506CD91CDBFDD91DEBF64
:10307000FF91EF91DF91CF91BF91AF919F918F9190
:103080007F916F915F914F913F912F911F910F9180
:10309000FF90EF90DF90CF90BF90AF909F908F9078
:1030A0007F906F905F904F903F902F901F900F9068
:1030B0000CBE0F900BBE0F900FBE0F900895809125
:1030C00000020E9423080E946105FDCFE5E2F5E0C1
:1030D0001382128288EE93E0A0E0B0E084839583AF
:1030E000A683B7838BE092E09183808385EC90E0A8
:1030F0009587848784EC90E09787868780EC90E0C2
:10310000918B808B81EC90E0938B828B82EC90E0B2
:10311000958B848B86EC90E0978B868B118E128E2C
:10312000138E148E08950F931F93CF93DF938230E5
:10313000910510F482E090E0E0914906F0914A0692
:1031400030E020E0B0E0A0E0309799F4211531059F
:1031500009F44AC0281B390B24303105D8F58A817F
:103160009B816115710589F1FB0193838283FE01C7
:1031700011C0408151810281138148175907E0F045
:103180004817590799F4109761F012960C9312970B
:1031900013961C933296CF01DF91CF911F910F911F
:1031A00008950093490610934A06F4CF211531057E
:1031B00051F04217530738F0A901DB019A01BD0114
:1031C000DF01F801C1CFEF01F9CF90934A06809358
:1031D0004906CDCFFE01E20FF31F81939193225058
:1031E000310939832883D7CF20914706309148068B
:1031F000232B41F4209103023091040230934806BE
:1032000020934706209101023091020221153105D9
:1032100041F42DB73EB74091050250910602241BA0
:10322000350BE0914706F0914806E217F307A0F44A
:103230002E1B3F0B2817390778F0AC014E5F5F4F0C
:103240002417350748F04E0F5F1F509348064093F0
:103250004706819391939FCFF0E0E0E09CCFCF931E
:10326000DF930097E9F0FC01329713821282A0915C
:103270004906B0914A06ED0130E020E01097A1F434
:1032800020813181820F931F20914706309148069B
:103290002817390709F061C0F0934806E093470604
:1032A000DF91CF910895EA01CE17DF07E8F54A8153
:1032B0005B819E0141155105B1F7E901FB83EA836A
:1032C00049915991C40FD51FEC17FD0761F4808116
:1032D00091810296840F951FE901998388838281E9
:1032E00093819B838A83F0E0E0E012968D919C911C
:1032F00013970097B9F52D913C911197CD01029646
:10330000820F931F209147063091480628173907EE
:1033100039F6309751F510924A0610924906B0934B
:103320004806A0934706BCCFD383C2834081518116
:10333000840F951FC817D90761F44E5F5F4F8881CE
:103340009981480F591F518340838A819B819383C0
:1033500082832115310509F0B0CFF0934A06E0933E
:1033600049069ECFFD01DC01C0CF13821282D7CF68
:10337000AA1BBB1B51E107C0AA1FBB1FA617B7079B
:1033800010F0A61BB70B881F991F5A95A9F78095B7
:103390009095BC01CD010895A1E21A2EAA1BBB1B7A
:1033A000FD010DC0AA1FBB1FEE1FFF1FA217B30711
:1033B000E407F50720F0A21BB30BE40BF50B661F27
:1033C000771F881F991F1A9469F7609570958095EB
:1033D00090959B01AC01BD01CF010895052E97FB8F
:1033E0001EF400940E94051A57FD07D00E94CC19C4
:1033F00007FC03D04EF40C94051A50954095309577
:1034000021953F4F4F4F5F4F089590958095709550
:1034100061957F4F8F4F9F4F0895EE0FFF1F881FBD
:103420008BBF0790F691E02D19940E94271AB7FFE1
:103430000895821B930B08950E94271AA59F900D53
:10344000B49F900DA49F800D911D11240895A29FFB
:10345000B001B39FC001A39F700D811D1124911D68
:10346000B29F700D811D1124911D0895FB01DC0197
:1034700002C001900D9241505040D8F70895DC01F0
:1034800001C06D9341505040E0F70895CF93DF9312
:10349000CDB7DEB7AE014A5F5F4FFA01619171911E
:1034A000AF0180914D0690914E060E94851ADF91E2
:1034B000CF9108950F931F93CF93DF93E0914D0623
:1034C000F0914E062381EC0110E000E021FD08C0E0
:1034D0000FEF1FEF14C01995892B11F00FEF1FEF9D
:1034E000899160914D0670914E06DB011896ED9121
:1034F000FC918111F0CF8AE01995892B49F7C80119
:10350000DF91CF911F910F9108952F923F924F928B
:103510005F926F927F928F929F92AF92BF92CF9263
:10352000DF92EF92FF920F931F93CF93DF9300D020
:1035300000D000D01F921F92CDB7DEB77C013B01B7
:103540008A01FC0117821682838181FFDDC1CE01D1
:1035500001965C01F7019381F30193FD859193FF3F
:1035600081913F01882309F453C1853239F493FDD9
:10357000859193FF81913F01853229F4B70190E055
:103580000E949D1CE7CF912C212C312CFFE1F315DB
:1035900038F08B3211F190F4803209F1833229F145
:1035A00037FC3CC020ED280F2A3050F536FE20C0F5
:1035B0008AE0989E200D1124922E06C08D3291F043
:1035C000803371F7689430F8F30193FD859193FF90
:1035D00081913F018111DACF21C0689431F868945C
:1035E00032F8F2CF689433F8EFCF689434F8ECCF28
:1035F000EAE02E9E200D1124222E689435F8E4CFA7
:103600008E3229F436FC04C1689436F8DDCF8C364E
:1036100019F4689437F8D8CF8836B1F2982F9F7D87
:1036200095549330E0F08336A1F18337C1F18335AF
:1036300009F063C02801F2E04F0E511CF801C08070
:10364000D180692D70E036FC02C06FEF7FEFC601BC
:103650000E94871C4C01689437F882010AC00C5FF5
:103660001F4FFFE3F98388248394912C6501E8942C
:1036700037F833FE2DC0522C8114910471F555207A
:1036800009F468CFB70180E290E00E949D1C5A9433
:10369000F6CFF801808189830E5F1F4FE4CF2801A8
:1036A000F2E04F0E511CF801C080D180692D70E00E
:1036B00036FC02C06FEF7FEFC6010E94921C4C01E6
:1036C0008201D5CFB70180E290E00E949D1C2A9430
:1036D0002814190409F0B0F7CECFF60137FC859114
:1036E00037FE81916F01B70190E00E949D1C51103F
:1036F0005A94F1E08F1A9108BFCF843619F08936B9
:1037000009F077C0F80137FE6BC06081718182815A
:1037100093810C5F1F4FF32DFF763F2E97FF09C05B
:1037200090958095709561957F4F8F4F9F4F6894CE
:1037300037F82AE030E0A5010E94CD1CC82ECA1837
:103740008C2C432C36FE0CC0E89440F8C91440F48D
:1037500034FE05C032FC03C0F32DFE7E4F2E892CB3
:1037600044FEAAC0FE01EC0DF11D8081803309F0FA
:103770009CC0242D297E422E842D8870582E43FC17
:10378000AAC040FEA4C09C2C821418F42C0C922CCD
:10379000981844FEA6C0B70180E390E00E949D1CEB
:1037A00042FE09C088E790E041FE02C088E590E053
:1037B000B7010E949D1CC91408F49FC0CA94D12C63
:1037C0009FEFC91AD90ACA0CDB1CF60182916F015E
:1037D000B70190E00E949D1CAC14BD04B1F74FCF1F
:1037E00060817181072E000C880B990B0E5F1F4FB3
:1037F00092CFD32CE894D4F82AE030E08537E1F179
:10380000232D297FD22E8F36A9F1F0F4883551F17E
:10381000F701868197812B960FB6F894DEBF0FBE15
:10382000CDBFDF91CF911F910F91FF90EF90DF906F
:10383000CF90BF90AF909F908F907F906F905F9050
:103840004F903F902F900895803749F0883701F7C7
:10385000D4FE02C06894D2F820E130E00DC0689434
:10386000D4F8F6CF34FE03C0822F8660D82E20E134
:1038700032E002C028E030E0F801D7FE0FC06081DE
:103880007181828193810C5F1F4FA5010E94CD1C25
:10389000C82ECA183D2CE89437F852CF6081718148
:1038A00090E080E00E5F1F4FF0CF42FC02C0839497
:1038B00063CF8394839460CF842D867809F45CCFA2
:1038C000F6CFB70180E290E00E949D1C83948214A1
:1038D000C0F3512C5ECF522C5818821408F459CFE3
:1038E000F8CF842D867809F466CF8BE241FE80E222
:1038F00047FC8DE2B70190E05CCFB70180E390E038
:103900000E949D1C9A9457CF8FEF9FEF84CFFC01AC
:103910000590615070400110D8F7809590958E0FFA
:103920009F1F0895FC016150704001900110D8F76D
:10393000809590958E0F9F1F08950F931F93CF939F
:10394000DF93182F092FEB018B8181FD09C01FEF39
:103950000FEF812F902FDF91CF911F910F9108953D
:1039600082FF14C02E813F818C819D8128173907E9
:103970003CF4E881F981CF01019699838883108313
:103980008E819F8101969F838E83E3CFE885F985A1
:10399000812F1995892BA1F3DACFFA01AA272830B4
:1039A00051F1203181F1E8946F936E7F6E5F7F4F0C
:1039B0008F4F9F4FAF4FB1E03ED0B4E03CD0670F88
:1039C000781F891F9A1FA11D680F791F8A1F911DDB
:1039D000A11D6A0F711D811D911DA11D20D009F42B
:1039E00068943F912AE0269F11243019305D31936D
:1039F000DEF6CF010895462F4770405D4193B3E056
:103A00000FD0C9F7F6CF462F4F70405D4A3318F0FC
:103A1000495D31FD4052419302D0A9F7EACFB4E0AD
:103A2000A6959795879577956795BA95C9F7009765
:103A30006105710508959B01AC010A2E0694579506
:103A4000479537952795BA95C9F7620F731F841F5D
:0A3A5000951FA01D0895F894FFCF04
:103A5A000300005106800000000000F4045E048B9D
:103A6A00044105BC049A04AE040A4C414220332E98
:103A7A0032202D20434F4E444954494F4E4152451E
:103A8A002053454D4E414C0048432D535230343A51
:103A9A0020545249472044362C204543484F20445D
:103AAA003700506F74656E74696F6D657472753A1C
:103ABA00204130207C204C45443A20443900466954
:103ACA006C7472653A206D656469616E6120332C8D
:103ADA00206D65646965726520706F6E64657261D8
:103AEA007461203400506F6E646572693A20353013
:103AFA002C2032352C2031352C2031300045524FC4
:103B0A004152453A20637265617265206D7574652C
:103B1A00782E00556C747261736F6E696300506F12
:103B2A0074656E74696F6D65746572005265706F45
:103B3A0072740045524F4152453A20637265617270
:103B4A0065207461736B2D7572692E004F4E0049A2
:103B5A004E414354495641000A3D3D3D3D3D3D3DA0
:103B6A003D3D3D204C414220332E32203D3D3D3DDE
:103B7A003D3D3D3D3D3D005B554C545241534F4EFA
:103B8A0049435D204369746972653A20256C750A58
:103B9A000053746172653A2061737465707461725E
:103BAA00650053746172653A2066617261206563CB
:103BBA006F75202F2074696D656F75740044697381
:103BCA0074616E74613A20696E646973706F6E69AC
:103BDA0062696C61004C45443A204F4646004543B1
:103BEA00484F2075733A20627275743D256C7520B2
:103BFA007C207361743D2564207C206D65643D25BD
:103C0A0064207C206176673D25640A0044697374E8
:103C1A00616E74612062727574610025733A2025A1
:103C2A00752E257520636D0A0044697374616E747C
:103C3A00612066696C747261746100416C657274AA
:103C4A00613A202573207C204C45443A2025730A8A
:103C5A00004154454E5449453A206F626965637480
:103C6A002073756220313020636D21000A5B504F4A
:103C7A0054454E54494F4D455452555D204369743D
:103C8A006972653A20256C750A00414443206272C4
:103C9A0075743A2025640A0054656E7369756E65F9
:103CAA00206D563A20627275743D2564207C20731B
:103CBA0061743D2564207C206D65643D2564207C0B
:103CCA00206176673D25640A00556E6768693A2067
:103CDA00627275743D256420646567207C2066697C
:103CEA006C747261743D2564206465670A003D3D09
:103CFA003D3D3D3D3D3D3D3D3D3D3D3D3D3D3D3DEA
:103D0A003D3D3D3D3D3D3D3D3D3D0049444C450029
:083D1A00546D72205376630022
:00000001FF
